:100000000C9405060C942D060C942D060C942D06CC
:100010000C942D060C942D060C942D060C942D0694
:100020000C942D060C942D060C942D060C942D0684
:100030000C942D060C942D060C942D060C942D0674
:100040000C945B110C942D060C94CB110C94A511FF
:100050000C942D060C942D060C942D060C942D0654
:100060000C94FD110C942D06084AD73B3BCE016E33
:1000700084BCBFFDC12F3D6C74319ABD56833DDAFF
:100080003D00C77F11BED9E4BB4C3E916BAAAABE0E
:10009000000000803F004E414E494E495459494EA0
:1000A00046CDCCCC3D0AD7233C17B7D13877CC2BE3
:1000B000329595E6241FB14F0A000020410000C888
:1000C0004200401C4620BCBE4CCA1B0E5AAEC59D09
:1000D000742320736176656420746F204545505207
:1000E0004F4D00206B3D002079703D002076693D2A
:1000F00000232076703D002F002064623D002074B4
:1001000072696D3D00204B643D00204B693D00232A
:10011000204B703D00232044495341524D45443A01
:10012000200023206779726F2063616C2052454A5A
:10013000454354454420286D6F76656D656E74297E
:1001400020E280942073746F726564206269617329
:1001500020696E207573652C2072756E20276327C9
:10016000207768656E207374696C6C002320677952
:10017000726F2063616C20646F6E6520282763278F
:1001800020746F207265646F290023206779726F75
:100190002063616C3A206B65657020726F626F74CA
:1001A000207374696C6C2E2E2E0023206E6F2F6FBF
:1001B0006C6420454550524F4D2073657474696ED0
:1001C00067732C207573696E672064656661756C52
:1001D0007473002320454550524F4D20736574744D
:1001E000696E6773206C6F61646564002320276803
:1001F0002720666F722068656C702C20276127208D
:10020000746F2061726D2C20277827203D20452DAA
:1002100053544F500023205741524E494E473A20E5
:100220004D505536303530206F66666C696E6520EE
:1002300028756E706F77657265643F2077697269A3
:100240006E673F2920E280942077696C6C2072658C
:1002500074727900232073656C662D62616C616E27
:1002600063696E672D726F626F742066773320E268
:100270008094206D6F746F72732044495341524DC6
:10028000454420617420626F6F7400232057202042
:10029000736176652073657474696E677320746F1B
:1002A00020454550524F4D00232063206779726FDF
:1002B00020726563616C20287374696C6C2B6469AF
:1002C0007361726D656429207C206D206D6F746F81
:1002D00072207465737420286C2F72203C70776DC7
:1002E0003E2900232062203C6C3E205B725D20642E
:1002F00065616462616E64207C207A20726573653A
:100300007420696E74656772616C73207C20732041
:1003100074656C656D657472790023206B203C7682
:100320003E2020636D2F73207065722050574D2042
:100330007C206F203C6465673E20207472696D20CC
:100340007C20542063617074757265207472696DCD
:10035000203573002320702F692F64203C763E20C7
:1003600020616E676C65206761696E73207C207602
:10037000702F7669203C763E2076656C2067616937
:100380006E73207C207970203C763E207961772046
:100390006761696E00232076203C636D2F733E20D9
:1003A0002076656C6F6369747920736574706F690A
:1003B0006E74202830203D2073746174696F6E2044
:1003C0006B6565702900232067203C636D3E20200B
:1003D000676F2064697374616E6365207C2074208C
:1003E0003C6465673E20207475726E20282B203D8A
:1003F000206C6566742F4343572900232052202028
:100400007265626F6F7420696E746F20626F6F74B3
:100410006C6F61646572202872656D6F74652072FF
:1004200065666C6173682900232053202073776907
:100430006E672D75703A2073656C662D6572656305
:10044000742066726F6D2072756C657220726573B0
:1004500074202870756D70202B2063617463682C84
:1004600020387320636170290023204320206361BA
:10047000746368206D6F64653A2061726D73204902
:100480004E5354414E544C59207768656E20737713
:10049000696E672063726F7373657320676174653B
:1004A00020283130732077696E646F77290023200C
:1004B00061202061726D2028686F6C6420757072F5
:1004C000696768742032733B207468656E207374AA
:1004D0006174696F6E2D6B65657073290023203F11
:1004E0002020737461747573207C20682068656CAB
:1004F00070207C20782020452D53544F50202869AF
:100500006D6D656469617465290020745F6D733D6C
:100510000020766261743D00207961773D0020649F
:100520006973743D004F46464C494E45004F4B00A1
:100530002073747265616D3D00206D70753D0054CF
:1005400055524E00474F00484F4C4400206D6F6499
:10055000653D004D4F544F525F5445535400424146
:100560004C414E43494E47005357494E4755500062
:1005700043415443480041524D494E47004449537A
:1005800041524D454400232073746174653D00233E
:1005900020756E6B6E6F776E20636D643A20002954
:1005A000005620287261772041303D00232076627A
:1005B00061743D0023206C2F72206F6E6C7920696E
:1005C0006E206D6F746F722074657374206D6F642C
:1005D000652028276D27290020523D0023207465BF
:1005E00073742070776D204C3D0023206D6F746F05
:1005F00072207465737420726566757365643A2041
:100600006E6F742064697361726D65640023206C81
:10061000203C70776D3E202F2072203C70776D3E1D
:1006200020282D3235352E2E323535293B20617567
:10063000746F2D7A65726F20616674657220322046
:10064000732069646C653B20782065786974730059
:1006500023204D4F544F5220544553543A2077682D
:1006600065656C73204F4646207468652067726F1D
:10067000756E642C2062617474657279206F6E2EC1
:100680000023206779726F2063616C2052454A45D0
:100690004354454420286D6F76656D656E7429203E
:1006A000E28094206F6C642062696173206B6570D6
:1006B000740023206779726F2063616C20646F6E11
:1006C000650023206779726F2063616C3A206B6547
:1006D000657020726F626F74205354494C4C2E2EFB
:1006E0002E0023206779726F2063616C207265662B
:1006F000757365643A2064697361726D206669720E
:1007000073740023206779726F2063616C207265B7
:1007100066757365643A204D505536303530206F1C
:1007200066666C696E6500232073747265616D2066
:100730006F66660074696D655F6D732C7261775FBB
:10074000616E676C652C6B616C6D616E5F616E676D
:100750006C652C6779726F5F726174652C705F7461
:1007600065726D2C695F7465726D2C645F7465725F
:100770006D2C6D6F746F725F6F75742C6C6F6F7012
:100780005F64745F75732C6779726F5F792C67791A
:10079000726F5F7A2C74696C745F636D642C765F22
:1007A0006573742C765F7365742C646973745F630E
:1007B0006D2C7961775F6465672C766261740023C4
:1007C00020696E74656772616C73207265736574FD
:1007D0000023207420726566757365643A206E6F1D
:1007E000742062616C616E63696E6720287472693F
:1007F0006D20697320276F27206E6F7729002320D3
:100800005455524E20746F20796177200023206761
:1008100020726566757365643A206E6F742062613C
:100820006C616E63696E670020636D002320474F23
:10083000200023207620726566757365643A206E09
:100840006F742062616C616E63696E67002320764D
:100850005F736574202D3E200023206361707475E2
:1008600072696E67207472696D3A20686F6C6420DB
:10087000726F626F742061742062616C616E636577
:1008800020706F696E7420352073002320726562BA
:100890006F6F74696E6720746F20626F6F746C6F16
:1008A000616465720023207377696E6775702072CA
:1008B0006566757365643A206E6F74206469736150
:1008C000726D65640023205357494E4755503A20B6
:1008D00070756D70696E670023207377696E677538
:1008E0007020726566757365643A20626174746520
:1008F0007279206C6F770023207377696E6775704B
:1009000020726566757365643A204D5055206F6698
:10091000666C696E6500232063617463682072658C
:1009200066757365643A206E6F74206469736172D2
:100930006D656400232043415443482061726D6516
:10094000643A2077616974696E6720666F72206708
:100950006174652063726F7373696E67002320632F
:100960006174636820726566757365643A206261BC
:100970007474657279206C6F7700232063617463EF
:100980006820726566757365643A204D5055206F16
:1009900066666C696E650023206F206E6565647302
:1009A00020612076616C756520286F7220757365F3
:1009B000205420746F206361707475726529002360
:1009C0002061726D20726566757365643A206E6F82
:1009D000742064697361726D656400232041524D17
:1009E000494E473A20686F6C642075707269676879
:1009F00074207E322073202868756D203D20696E3A
:100A000020676174652900562920E280942063687C
:100A10006172676520697400232061726D207265C0
:100A200066757365643A2062617474657279206CCE
:100A30006F77202800232061726D207265667573C0
:100A400065643A204D505536303530206F66666CFF
:100A5000696E65202862617474657279206F6666BC
:100A60003F290023206572723A20636865636B73C7
:100A7000756D0023206572723A206261642066728F
:100A8000616D650023206572723A206261642066A0
:100A900072616D6500656D657267656E637920735F
:100AA000746F700023205455524E20646F6E652C75
:100AB000207961773D002320474F20646F6E652CBD
:100AC00020646973743D002320746573742070770B
:100AD0006D206175746F2D7A65726F6564202832A0
:100AE00020732069646C65290074696C74206375D7
:100AF000746F66660023204341554748542028738D
:100B000077696E6775702920E280942062616C615C
:100B10006E63696E67007377696E677570207469BC
:100B20006D656F757400232043415547485420E29A
:100B300080942062616C616E63696E6700636174AA
:100B400063682077696E646F772065787069726575
:100B50006400232041524D454420E2809420737468
:100B60006174696F6E206B656570696E6700232024
:100B70007472696D2063617074757265643A2000E7
:100B80002320494D552046524F5A454E20E280942D
:100B900020726573657474696E6700494D5520460F
:100BA000524F5A454E0023204D5055363035302097
:100BB0006F6E6C696E6500000000080002010000A5
:100BC00003040700000000000000000000000025F2
:100BD0000028002B0000000000240027002A000449
:100BE00004040404040404020202020202030303D4
:100BF00003030301020408102040800102040810CE
:100C000020010204081020001C1311241FBECFEF86
:100C1000D8E0DEBFCDBF23E0A6E5B1E001C01D9264
:100C2000AE38B207E1F711E0A0E0B1E0E0E8F6E5A8
:100C300002C005900D92A635B107D9F716E0C5E0C0
:100C4000D6E004C02197FE010E94132BC430D107C7
:100C5000C9F70E94C7130C943E2B0C940000089512
:100C6000089590E0FC01ED50F44F24918152944F8F
:100C7000FC018491882399F090E0880F991FFC0172
:100C8000EB52F44FA591B491FC01E553F44F8591DB
:100C900094918FB7F894EC91E22BEC938FBF089569
:100CA000EBE3F3E0108E118E128E138E14A215A2B8
:100CB00016A217A210A211A212A213A2148E158EB0
:100CC000168E178E81E080A7089580E480937C00C3
:100CD00080917A00806480937A0080917A0086FD0A
:100CE000FCCF8091780090917900089590E0FC010C
:100CF000E954F44F2491FC01ED50F44F3491FC0180
:100D0000E152F44FE491EE23C9F0222339F023306D
:100D100001F1A8F4213019F1223029F1F0E0EE0FB1
:100D2000FF1FE553F44FA591B4918FB7F894EC9160
:100D3000611126C030953E233C938FBF0895273024
:100D4000A9F02830C9F0243049F7809180008F7DC8
:100D500003C0809180008F7780938000DFCF84B5BF
:100D60008F7784BDDBCF84B58F7DFBCF8091B000C2
:100D70008F778093B000D2CF8091B0008F7DF9CF74
:100D80003E2BDACF1F93CF93DF93182FEB010E94F6
:100D90003106209739F460E0812FDF91CF911F91C8
:100DA0000C947606CF3FD10511F461E0F5CFE12F29
:100DB000F0E0E954F44FE491E33031F140F4E130F4
:100DC000B1F0E230E1F0C038D1057CF7E4CFE73094
:100DD00029F1E83059F1E430B1F780918000806268
:100DE00080938000D0938B00C0938A0004C084B5A8
:100DF000806884BDC7BDDF91CF911F91089584B5F0
:100E0000806284BDC8BDF7CF8091800080688093E8
:100E10008000D0938900C0938800EDCF8091B0000E
:100E200080688093B000C093B300E5CF8091B0009C
:100E300080628093B000C093B400DDCF1F93CF9346
:100E4000DF93162FEA011C161D065CF461E00E9478
:100E50007606BE01CF3FD10571F06CF06FEF70E008
:100E60000AC060E00E947606662777276C1B7D0B20
:100E7000C130DF4F9CF3812FDF91CF911F910C94F4
:100E8000C206CF93DF93209115012223B9F0EB0125
:100E900044275527481B590B65E070E087E090E038
:100EA0000E941E07442755274C1B5D0B66E070E02F
:100EB00088E090E0DF91CF910C941E07DF91CF91F5
:100EC000089570E060E085E00E94C20670E060E096
:100ED00086E00E94C20660E087E00E94760660E03D
:100EE00088E00C9476060E94610761E083E00E942E
:100EF000760681E08093150108953FB7F8948091BC
:100F0000170290911802A0911902B0911A0226B509
:100F1000A89B05C02F3F19F00196A11DB11D3FBF31
:100F2000BA2FA92F982F8827BC01CD01620F711D00
:100F3000811D911D42E0660F771F881F991F4A95FA
:100F4000D1F708958F929F92AF92BF92CF92DF9286
:100F5000EF92FF924B015C010E947D076B017C01C7
:100F60000E947D076C197D098E099F09683E7340B8
:100F700081059105A8F321E0821A9108A108B10822
:100F800088EEC80E83E0D81EE11CF11C8114910488
:100F9000A104B10429F7FF90EF90DF90CF90BF90AC
:100FA000AF909F908F9008952FB7F894609113029F
:100FB0007091140280911502909116022FBF08952E
:100FC000AF92BF92CF92DF92EF92FF920F931F9357
:100FD000CF93DF936C017B018B01040F151FEB0195
:100FE0005E01AE18BF08C017D10759F06991D6014C
:100FF000ED91FC910190F081E02DC6010995892BBE
:1010000079F7C501DF91CF911F910F91FF90EF907C
:10101000DF90CF90BF90AF900895FC01538D448D29
:10102000252F30E0842F90E0821B930B541710F093
:10103000CF96089501970895FC01918D828D9817A0
:1010400061F0A28DAE0FBF2FB11D5D968C91928D78
:101050009F5F9F73928F90E008958FEF9FEF0895A9
:10106000FC01918D828D981731F0828DE80FF11D72
:10107000858D90E008958FEF9FEF0895FC01918D8D
:10108000228D892F90E0805C9F4F821B91098F7386
:101090009927089582E992E00E943E0821E0892B79
:1010A00009F420E0822F089580E090E0892B29F058
:1010B0000E944A0881110C9400000895FC01A48D3F
:1010C000A80FB92FB11DA35ABF4F2C91848D90E06A
:1010D00001968F739927848FA689B7892C93A0894D
:1010E000B1898C91837080648C93938D848D9813D7
:1010F00006C00288F389E02D80818F7D808308956A
:10110000EF92FF920F931F93CF93DF93EC0181E057
:10111000888F9B8D8C8D98131AC0E889F9898081FE
:1011200085FF15C09FB7F894EE89FF896083E88931
:10113000F98980818370806480839FBF81E090E023
:10114000DF91CF911F910F91FF90EF900895F62EB0
:101150000B8D10E00F5F1F4F0F731127E02E8C8D4A
:101160008E110CC00FB607FCFACFE889F98980818F
:1011700085FFF5CFCE010E945E08F1CFEB8DEC0F1D
:10118000FD2FF11DE35AFF4FF0829FB7F8940B8FAC
:10119000EA89FB8980818062CFCF0F931F93CF9321
:1011A000DF938C01D0E0C0E0F801EC0FFD1F6491EB
:1011B000662341F082E992E00E948008892B11F0B9
:1011C0002196F2CFCE01DF91CF911F910F9108951B
:1011D000682F82E992E00C948008CF93DF93EC01B2
:1011E000888D8823B9F0AA89BB89E889F9898C910F
:1011F00085FD03C0808186FD0DC00FB607FCF7CFCB
:101200008C9185FFF2CF808185FFEDCFCE010E94CA
:101210005E08E9CFDF91CF91089520917601260FE6
:101220003327331F21323105ECF420916802FC0191
:1012300090E080E0243069F082E00895A09176018A
:101240002191AC014A5A5E4FA40FB52FB11D2C93CA
:101250000196861798F380917601680F6093760166
:1012600080E0089581E008951092680281E0809303
:1012700067021092420261E082E10E94760661E01C
:1012800083E10E947606E9EBF0E080818E7F808327
:1012900080818D7F808388E48093B80085E480938B
:1012A000BC000895CF93DF9391E090931B028823B5
:1012B000B9F0C091B800D091BA008091BC008A7B8F
:1012C0008093BC0060E082E10E94760660E083E1EA
:1012D0000E9476060E943409D093BA00C093B800E9
:1012E000DF91CF9108958F929F92AF92BF92CF924C
:1012F000DF92EF92FF920F931F93CF93DF93D091E2
:101300009102D13208F0D7C0182FC09190020E94EC
:101310007D076B017C018091680281116BC082E0C6
:1013200080936802109367028FEF80936602109299
:101330006502D0936402A0E7B2E0E4E4F2E080E06A
:10134000D81391C01092430280914302CC0FC82B56
:10135000C093430280914202813009F088C010920C
:1013600042020E947D076B017C01809143028093C1
:10137000BB0080916A0290916B02A0916C02B091C7
:101380006D02892B8A2B8B2BA1F00E947D07009187
:101390006A0210916B0220916C0230916D026C19FF
:1013A0007D098E099F09061717072807390708F4D2
:1013B00042C08091BC0083FDD8CF85EC8093BC00F7
:1013C0000E947D076B017C0180916802823009F4E4
:1013D00050C0809166028F3F09F46FC08091660211
:1013E000803209F46CC080916602803309F469C0D0
:1013F00084E026C080916A0290916B02A0916C02F9
:10140000B0916D02892B8A2B8B2B09F484CF0E941B
:101410007D0780906A0290906B02A0906C02B09061
:101420006D026C197D098E099F0986169706A8061C
:10143000B90608F070CF809169020E94520985E0D8
:1014400010926F021092910210926E02DF91CF9172
:101450001F910F91FF90EF90DF90CF90BF90AF90D2
:101460009F908F9008959D9191938F5F69CF85EEA6
:10147000A5CF80916A0290916B02A0916C02B0910D
:101480006D02892B8A2B8B2B09F49ECF0E947D073E
:1014900000916A0210916B0220916C0230916D02F2
:1014A0006C197D098E099F09061717072807390748
:1014B00008F08ACFC0CF81E0C3CF80E0C1CF82E007
:1014C000BFCF83E0BDCF0895E0912102809120023B
:1014D000E81730F4F0E0EE5DFD4F808190E0089574
:1014E0008FEF9FEF089590912102809120022FEFBE
:1014F0003FEF981748F4E92FF0E0EE5DFD4F2081B3
:1015000030E09F5F90932102C901089580912002ED
:1015100090912102891B990B0895CF92DF92EF924F
:10152000FF920F931F93CF93DF937C01CB018A012E
:1015300020916E02222389F0EB016B01C40ED51EAF
:10154000CC15DD0569F06991D701ED91FC91019011
:10155000F081E02DC7010995F3CF642F0E940D099A
:10156000C801DF91CF911F910F91FF90EF90DF9015
:10157000CF900895CF93DF931F92CDB7DEB76983E5
:1015800020916E022223F9F020919102203258F02E
:1015900021E030E0FC013383228390E080E00F9073
:1015A000DF91CF91089580916F02E82FF0E0E0592C
:1015B000FD4F998190838F5F80936F02809391029A
:1015C00081E090E0ECCF61E0CE0101960E940D0930
:1015D000F7CFCF93C62F90911C0121E020936E028C
:1015E0009093900210926F0210929102682F8FE2F6
:1015F00093E00E94BA0A6C2F8FE293E00E94BA0A2D
:1016000081E0CF910C94730990E080E008951092EE
:10161000B7011092B8011092B9011092BA0110925C
:10162000C0011092C1011092C2011092C301109228
:10163000DB011092DC011092DD011092DE011092AC
:10164000DF011092E0011092E1011092E20110928C
:10165000D2011092D3011092D4011092D5011092B0
:10166000B2011092B3011092B4011092B501109220
:10167000BB011092BC011092BD011092BE011092EC
:10168000D7011092D8011092D9011092DA0110926C
:10169000CE011092CF011092D0011092D101109280
:1016A000F2011092F3011092F4011092F5011092E0
:1016B000B6011092BF0108954F925F926F927F9290
:1016C0008F929F92AF92BF92FF920F931F93CF93EF
:1016D000DF93062FF72E142F90911C0121E0209309
:1016E0006E029093900210926F0210929102682FF6
:1016F0008FE293E00E94BA0A80E00E947309C091D1
:101700001C010E947D074B015C01809168028111E0
:1017100066C081E080936802809367029FEF909398
:10172000660210926502910F9093640280934302C7
:1017300080914302CC0FC82BC09343028091420298
:10174000813009F090C0109242020E947D074B0147
:101750005C01809143028093BB0080916A0290916A
:101760006B02A0916C02B0916D02892B8A2B8B2B9E
:10177000A1F00E947D0740906A0250906B02609039
:101780006C0270906D02681979098A099B094616E6
:1017900057066806790608F443C08091BC0083FDB3
:1017A000D8CF85EC8093BC000E947D074B015C0183
:1017B00080916802813009F458C0809165028117D8
:1017C00008F075C080916502E4E4F2E0A2E2B2E0C4
:1017D00090E0981751F121912D939F5FFACF80915E
:1017E0006A0290916B02A0916C02B0916D02892BFC
:1017F0008A2B8B2B09F489CF0E947D0740906A02C7
:1018000050906B0260906C0270906D0268197909BB
:101810008A099B09461657066806790608F075CFAF
:10182000809169020E94520980E010922102809307
:101830002002B02EC02FDF2D8FE293E00E94730AAA
:1018400089938C2F8B198117B8F3DF91CF911F915A
:101850000F91FF90BF90AF909F908F907F906F906F
:101860005F904F90089585EE9DCF80916A02909190
:101870006B02A0916C02B0916D02892B8A2B8B2B8D
:1018800009F496CF0E947D0740906A0250906B0247
:1018900060906C0270906D02681979098A099B0941
:1018A000461657066806790608F082CFB9CF812F11
:1018B0008BCF1F93CF93DF931F92CDB7DEB71092DC
:1018C00021021092200210926F02109291020E9447
:1018D00034098FE296E090931F0280931E0280E30A
:1018E00096E090931D0280931C0210921B0288EBDD
:1018F0009BE0A0E0B0E080936A0290936B02A0931B
:101900006C02B0936D0281E08093690260E88BE61F
:101910000E94E90A66E970E080E090E00E94A20778
:1019200067E088E60E94E90A66E970E080E090E0FE
:101930000E94A20761E08BE60E94E90A62E370E080
:1019400080E090E00E94A20763E08AE10E94E90A39
:1019500068E08BE10E94E90A68E08CE10E94E90AF4
:1019600013E0198241E0BE016F5F7F4F85E70E945F
:101970005C0B8981883631F481E00F90DF91CF9143
:101980001F91089562E370E080E090E00E94A2075A
:10199000115039F780E0F1CF2F923F924F925F9232
:1019A0006F927F928F929F92AF92BF92CF92DF926F
:1019B000EF92FF920F931F93CF93DF93CDB7DEB7D4
:1019C0002E970FB6F894DEBF0FBECDBF20911D013C
:1019D00030911E013A87298780911F019091200143
:1019E0009C878B8720912101309122013E872D8792
:1019F00010922201109221011092200110921F01D9
:101A000010921E0110921D0104EF11E0212C80E8BC
:101A1000382E8FEF9FE798878F83C12CD12C7601CA
:101A2000812C912C5401412C512C320146E0BE01F5
:101A30006F5F7F4F83E40E945C0B89819A819827B6
:101A40008927982720911D0130911E01821B930B3D
:101A50002B813C8132272327322740911F0150914F
:101A60002001241B350B4D815E81542745275427C7
:101A70006091210170912201FA01E61BF70BAC0184
:101A8000092E000C660B770B440E551E661E771E42
:101A9000032E000C440B550B820E931EA41EB51E84
:101AA000AF01FF0F660B770BC40ED51EE61EF71EA7
:101AB0002F8138858217930714F498878F8328160F
:101AC00039060CF41C0162E070E080E090E00E94B6
:101AD000A2070150110909F0A9CFC101330CAA0BCB
:101AE000BB0B2F813885A901330F660B770B841B45
:101AF000950BA60BB70BC397A105B10564F18985BA
:101B00009A8590931E0180931D012B853C8530930F
:101B1000200120931F018D859E8590932201809343
:101B2000210180E02E960FB6F894DEBF0FBECDBF28
:101B3000DF91CF911F910F91FF90EF90DF90CF90A9
:101B4000BF90AF909F908F907F906F905F904F90DD
:101B50003F902F900895C301B20124EF31E040E09F
:101B600050E00E94F42A30931E0120931D01C5010C
:101B7000B40124EF31E040E050E00E94F42A3093B9
:101B8000200120931F01C701B60124EF31E040E09E
:101B900050E00E94F42A309322012093210181E039
:101BA000C1CFFC0101900020E9F73197AF01481B3C
:101BB000590BBC0182E992E00C94E007CF93DF93CC
:101BC0000E94CD08EC0187E491E00E94D10D8C0FBA
:101BD0009D1FDF91CF910895CF93DF93EC010E9479
:101BE000610760E083E00E947606109215010E9472
:101BF00050060E94070B1092C9011092C801109262
:101C0000C7011092C6011092F60185E191E00E9491
:101C1000CD08CE01DF91CF910C94DE0D8F929F9273
:101C2000AF92BF920F931F93CF93DF93CDB7DEB7E1
:101C3000A1970FB6F894DEBF0FBECDBF19A24230F8
:101C400008F44AE08E010F5D1F4F842E912CB12CB9
:101C5000A12CA50194010E94D22AE62FB901CA0144
:101C6000EA30F4F4E05DD801EE938D01232B242BB0
:101C7000252B79F790E080E0109719F0CD010E94B4
:101C8000D10DA1960FB6F894DEBF0FBECDBFDF9188
:101C9000CF911F910F91BF90AF909F908F9008951B
:101CA000E95CE1CFCF92DF92EF92FF92CF93DF9387
:101CB0006C01990FEE08FF08F7FE17C08DE20E9435
:101CC000E808EC0166277727CB016C197D098E099E
:101CD0009F094AE00E940E0E8C0F9D1FDF91CF914D
:101CE000FF90EF90DF90CF9008954AE0C701B601D2
:101CF000DF91CF91FF90EF90DF90CF900C940E0E7C
:101D00004F925F926F927F928F929F92AF92BF920B
:101D1000CF92DF92EF92FF920F931F93CF936B01BD
:101D20007C01742EAC019B010E94B82A882399F093
:101D30008AE491E0CF911F910F91FF90EF90DF9097
:101D4000CF90BF90AF909F908F907F906F905F905B
:101D50004F900C94D10D46015701E894B7F82FEF3E
:101D60003FEF4FE75FE7C501B4010E94B82A811138
:101D70000DC02FEF3FEF4FE75FE7C501B4010E94B1
:101D8000252718161CF48EE491E0D4CF2FEF3FEFF7
:101D90004FE75FE4C701B6010E94612A18161CF4E0
:101DA00082E591E0C7CF2FEF3FEF4FE75FECC70130
:101DB000B6010E94252787FDF3CF20E030E0A9017E
:101DC000C701B6010E94252710E000E087FF08C088
:101DD0008DE20E94E8088C01F7FAF094F7F8F0948D
:101DE000C0E060E070E080E09FE37C1641F020E01E
:101DF00030E040E251E40E949229CF5FF6CFA70184
:101E000096010E94B4282B013C010E940B2A4B0131
:101E10005C014AE00E940E0E7C01E00EF11ECC2314
:101E2000B1F1C501B4010E942A279B01AC01C30195
:101E3000B2010E94B3284B015C018EE20E94E808C7
:101E4000E80EF91EC15018F120E030E040E251E404
:101E5000C501B4010E948B272B013C010E940B2A73
:101E60004B01B12CA12C4AE0C501B4010E940E0E19
:101E7000E80EF91EC501B4010E942A279B01AC019E
:101E8000C301B2010E94B3284B015C01DBCFC70143
:101E9000CF911F910F91FF90EF90DF90CF90BF9067
:101EA000AF909F908F907F906F905F904F9008952C
:101EB000CF93DF930E94800EEC0187E491E00E94B3
:101EC000D10D8C0F9D1FDF91CF9108950C94800E42
:101ED000CF93DF938FE091E00E94CD08CBE3D3E076
:101EE000688179818A819B8143E050E00E94660F7E
:101EF0008AE091E00E94CD086C817D818E819F8176
:101F000043E050E00E94660F85E091E00E94CD081A
:101F1000688579858A859B8543E050E00E94660F3D
:101F20008EEF90E00E94CD08609111017091120136
:101F3000809113019091140142E050E00E94660FDD
:101F400089EF90E00E94CD08C5E1D1E0698170E0A1
:101F500090E080E04AE00E940E0E87EF90E00E9441
:101F6000CD086A8170E090E080E04AE00E940E0EA9
:101F700087E491E00E94D10D81EF90E00E94CD08AE
:101F80006091000170910101809102019091030123
:101F900043E050E00E94660F8CEE90E00E94CD0876
:101FA00060910401709105018091060190910701F3
:101FB00043E050E00E94660F87EE90E00E94CD085B
:101FC0006091090170910A0180910B0190910C01BF
:101FD00042E050E00E94660F83EE90E00E94CD0840
:101FE00060910D0170910E0180910F01909110018F
:101FF00044E050E0DF91CF910C94580F85ED809331
:10200000BC0080916A0290916B02A0916C02B09129
:102010006D020796A11DB11D23E0B695A795979572
:1020200087952A95D1F72091BC0024FD03C010921A
:102030006802089540916A0250916B0260916C02AF
:1020400070916D02452B462B472B69F30097A10534
:10205000B10541F02AE22A95F1F700C00197A109E4
:10206000B109E1CF809169020C945209DF92EF929D
:10207000FF920F931F93CF93DF93CDB7DEB7AA974D
:102080000FB6F894DEBF0FBECDBF8CE790EB9A83FE
:10209000898380913B0390913C03A0913D03B091D3
:1020A0003E038B839C83AD83BE8380913F039091DD
:1020B0004003A0914103B09142038F839887A98781
:1020C000BA878091430390914403A0914503B09156
:1020D00046038B879C87AD87BE87809111019091C5
:1020E0001201A0911301B09114018F87988BA98BD5
:1020F000BA8B809116018B8B809117018C8B80910C
:10210000000190910101A0910201B09103018B8F18
:102110009C8FAD8FBE8F8091040190910501A0919D
:102120000601B09107018F8F98A3A9A3BAA380914C
:10213000090190910A01A0910B01B0910C018BA3B0
:102140009CA3ADA3BEA380910D0190910E01A0911F
:102150000F01B09110018FA398A7A9A7BAA78091EA
:102160001D0190911E019E8B8D8B80911F0190917E
:102170002001988F8F8B80912101909122019A8F5D
:10218000898FCE0101967C0110E000E0F701D1902B
:102190007F01C8010E944C28D81621F06D2DC8017E
:1021A0000E9454280F5F1F4F0A32110579F781ED05
:1021B00090E0AA960FB6F894DEBF0FBECDBFDF91B8
:1021C000CF911F910F91FF90EF90DF900C94DE0D57
:1021D000CF92DF92EF92FF920F931F93CF93DF93F3
:1021E00000D000D000D0CDB7DEB78AE891E00E94E1
:1021F000DE0D0E94CC0C882309F458C08CE691E0D7
:102200000E94DE0D0E94361046E0BE016F5F7F4FD8
:102210008BE30E945C0B0B811C8110270127102788
:102220008D819E81982789279827BC01990F880B5B
:10223000990B0E942C2720E030E040E059E30E94F7
:102240008B276B017C01B801110F880B990B0E9441
:102250002C2720E030E040E059E30E948B27A701C3
:1022600096010E94332920E030E044E353E40E94C9
:102270008B272BED3FE049E450E40E9492296093C4
:102280007003709371038093720390937303269687
:102290000FB6F894DEBF0FBECDBFDF91CF911F9177
:1022A0000F91FF90EF90DF90CF90089582E291E040
:1022B0000E94DE0DA9CF1F920F920FB60F9211242C
:1022C0002F933F938F939F93AF93BF93809113026C
:1022D00090911402A0911502B09116023091120251
:1022E00023E0230F2D3758F50196A11DB11D209332
:1022F00012028093130290931402A0931502B093DC
:1023000016028091170290911802A0911902B091C3
:102310001A020196A11DB11D809317029093180215
:10232000A0931902B0931A02BF91AF919F918F9120
:102330003F912F910F900FBE0F901F90189526E898
:10234000230F0296A11DB11DD2CF1F920F920FB67F
:102350000F9211242F933F934F935F936F937F932B
:102360008F939F93AF93BF93EF93FF9382E992E094
:102370000E945E08FF91EF91BF91AF919F918F9165
:102380007F916F915F914F913F912F910F900FBE71
:102390000F901F9018951F920F920FB60F92112455
:1023A0002F938F939F93EF93FF93E091A202F0916D
:1023B000A3028081E091A802F091A90282FD1BC0D6
:1023C00090818091AB028F5F8F732091AC02821756
:1023D00041F0E091AB02F0E0EE56FD4F958F809317
:1023E000AB02FF91EF919F918F912F910F900FBEB4
:1023F0000F901F9018958081F4CF1F920F920FB607
:102400000F9211242F933F934F935F936F937F937A
:102410008F939F93AF93BF93EF93FF938091B900F6
:10242000887F803609F44AC0F0F5883209F4A7C0E5
:1024300018F5803109F49BC0B8F4882309F4F9C079
:10244000883009F494C0FF91EF91BF91AF919F91B3
:102450008F917F916F915F914F913F912F910F904D
:102460000FBE0F901F901895883109F488C08032F4
:1024700051F78093660214C0803409F49DC040F483
:102480008033B9F38833F9F68093660285ECB0C0E7
:10249000803509F485C0883509F496C0883499F6EA
:1024A0000E94FE0FD0CF883909F48CC038F58837E8
:1024B00029F050F4883611F0803729F683E08093B4
:1024C00068021092980157C0883809F47BC080399F
:1024D00019F0803809F0B7CF80919801803208F068
:1024E00071C0E091980181E08E0F809398018091F6
:1024F000BB00F0E0E858FE4F80833DC0803B39F0E0
:10250000E0F4803A09F479C0883A09F09CCF84E07D
:10251000809368021092770110927601E0911E027A
:10252000F0911F0209958091760181110FC081E021
:10253000809376011092560109C0803C09F4A6CF21
:10254000883C09F4A3CF883B09F07DCFE091770167
:1025500081E08E0F80937701F0E0EA5AFE4F808190
:102560008093BB00909177018091760129C0809182
:1025700043028093BB0085EC8093BC0064CF9091B4
:10258000650280916402981758F5E091650281E038
:102590008E0F80936502F0E0EC5BFD4F8081E9CF08
:1025A000E091650281E08E0F809365028091BB000F
:1025B000F0E0EC5BFD4F80839091650280916402B6
:1025C0009817C8F285E8D8CFE091650281E08E0FB8
:1025D000809365028091BB00F0E0EC5BFD4F80834F
:1025E0008091670281115CCF81E08093420284EA8E
:1025F0008093BC001092680226CF85EC8093BC00CB
:102600001092680280919801803230F4E091980134
:10261000F0E0E858FE4F10826091980170E0E09180
:102620001C02F0911D0288E791E009951092980133
:102630000ACF1092660234CFE2E9F2E013821282EE
:1026400088EE93E0A0E0B0E084839583A683B7830F
:1026500027E231E03183208325EC30E03587248781
:1026600024EC30E03787268720EC30E0318B208B5C
:1026700021EC30E0338B228B22EC30E0358B248B45
:1026800026EC30E0378B268B118E128E138E148E33
:10269000EFE2F3E01382128284839583A683B783EB
:1026A00089E391E091838083E4E6F3E08FE692E1B1
:1026B000A3E8BAE380839183A283B38386EA9BE98C
:1026C000A4E4BBE384839583A683B7838FE892EC6D
:1026D000A5EFBCE380879187A287B3871486158610
:1026E00016861786108A118A128A138A108E118E06
:1026F000128E138E148E158E168E178E10A211A2A6
:1027000012A213A214A215A216A217A2EBE3F3E0E1
:1027100080E090E0A0E7B1E480839183A283B3835B
:1027200080E090E0A0E0BFE384839583A683B78335
:102730008DEC9CECACE4BEE380879187A287B387E5
:1027400080E090E0AFE7B3EC84879587A687B787F2
:1027500080E090E0AFE7B3E4808B918BA28BB38BEA
:10276000148A158A168A178A108E118E128E138E6D
:10277000148E158E168E178E10A211A212A213A2FD
:1027800014A215A216A217A281E080A70895CF93E4
:10279000DF93CDB7DEB7CE55D1090FB6F894DEBFC3
:1027A0000FBECDBF789484B5826084BD84B581604E
:1027B00084BD85B5826085BD85B5816085BD80910C
:1027C0006E00816080936E00109281008091810084
:1027D000826080938100809181008160809381007C
:1027E000809180008160809380008091B10084603E
:1027F0008093B1008091B00081608093B00080919F
:102800007A00846080937A0080917A00826080935D
:102810007A0080917A00816080937A0080917A00BA
:10282000806880937A001092C100E091A202F0913A
:10283000A30282E08083E0919E02F0919F021082C9
:10284000E091A002F091A10283E380831092AA029A
:10285000E091A602F091A70286E08083E091A402B5
:10286000F091A502808180618083E091A402F091C3
:10287000A502808188608083E091A402F091A50286
:10288000808180688083E091A402F091A50280811C
:102890008F7D8083109221021092200210926F028D
:1028A000109291020E9434098FE296E090931F02E9
:1028B00080931E0280E396E090931D0280931C0299
:1028C0008CE08093B80087E00E94310685E00E948A
:1028D000310688E00E94310686E00E94310683E0DE
:1028E0000E94310670E060E085E00E94C20670E060
:1028F00060E086E00E94C20660E087E00E94760603
:1029000060E088E00E94760660E083E00E94760640
:10291000109215018DE00E94310684E592E00E943C
:10292000DE0D9E012F5F3F4F790110E000E0C801EE
:102930000E944C28D7018D937D010F5F1F4F0A32F3
:102940001105A9F789819A818C37904B09F0B3C0A2
:102950008B859C85AD85BE854F81588569857A8537
:102960000B811C812D813E8100933B0310933C031E
:1029700020933D0330933E0340933F035093400325
:102980006093410370934203809343039093440305
:10299000A0934503B09346038F859889A989BA8986
:1029A0008093110190931201A0931301B09314012D
:1029B0008C899B899093160180931701898D9A8D3C
:1029C0002F89388D4D895E8950931E0140931D01DA
:1029D0003093200120931F019093220180932101C5
:1029E0008B8D9C8DAD8DBE8D8093000190930101E8
:1029F000A0930201B09303018F8D98A1A9A1BAA160
:102A00008093040190930501A0930601B093070100
:102A10008BA19CA1ADA1BEA18093090190930A0155
:102A2000A0930B01B0930C018FA198A5A9A5BAA5FD
:102A300080930D0190930E01A0930F01B0931001AC
:102A400083ED91E00E94DE0D0E94590C80930802F4
:102A50008823A1F10E94E8108CEE91E00E94DE0D27
:102A60000E94680F0E947D0760930E0270930F0210
:102A70008093100290931102A5E0DA2EFF24F394C4
:102A8000B2E0EB2E13E0C12E82E992E00E943E08F4
:102A9000181619060CF0E2C482E992E00E941C08A4
:102AA000982F9F7D983579F41092B10185E99AE0CD
:102AB0000E94EC0DE9CF8AEA91E0C4CF85E192E073
:102AC0000E94DE0DC9CF8D30F9F2E091B1018A305C
:102AD00009F0B8C4F0E0E756FE4F10821092B10141
:102AE00029E931E08901F90180812F5F3F4F803270
:102AF000C9F3882349F2843209F04FC06AE270E0DA
:102B0000C8010E94332BFC01892B31F0818188237D
:102B100019F08281811105C084E89AE00E94DE0DDF
:102B2000B3CFDF0111969F012D5F3F4F80E09D9154
:102B300040ED490F4A3030F04FEB490F4630A0F4DA
:102B400049EC490F50E1859FC0011124842BA21745
:102B5000B30769F70F5F1F4FD80190E0AE17BF07AB
:102B600060F42D919227FACF4FE9490F463010F4C7
:102B700049EAE7CF83E79AE0D1CF891719F083E6D6
:102B80009AE0CCCF1082C8018C01DC012C91019617
:102B90002032D1F3222309F477CFF801B080A1804D
:102BA000C8010196F6E7BF1222C020E7A21619F06D
:102BB00039E6A31222C00E5F1F4FC8010F5F1F4FDF
:102BC000DC012C912032C9F30E948A25B6E7BB12A2
:102BD0006EC0E0E7AE125FC0609300017093010128
:102BE00080930201909303010E94680F4DCF49E743
:102BF000B41203C050E7A516F1F28C01DC012C9150
:102C000001962032D1F3E1ECEB0DEC3308F012C465
:102C10000E2E000CFF0BE15FF94E0C94132B601687
:102C20001A1A1A1A1A1AC7171A1A1A1A1A1A1A1A5A
:102C30001A1A1A1A1A1A1A1A1A1A1A1A1A1A1A1AF4
:102C40001A1A1A1A411803184D181A1AFF19791965
:102C50001A1A1A1A1A1A1A1A1A1A1A1A1A1A1A1AD4
:102C60001A1A2A1735195E19AA171A1A1A1AA11848
:102C7000FB1696171A1A0C199B197F191A1AB617F0
:102C80006A171A1A9B192819DF181A1A5E181A1AC5
:102C90001A1A1A1A1B19F9E6AF1209C06093040137
:102CA0007093050180930601909307019DCF609377
:102CB000090170930A0180930B0190930C0194CF4A
:102CC00086E895E00E94CD088091F601823009F4F3
:102CD0007BC008F068C0882309F46EC0813009F415
:102CE00070C08CE495E00E94CD088091BF018130D6
:102CF00009F478C008F471C0823009F476C089E321
:102D000095E00E94CD0880910802882309F470C0E4
:102D10008DE295E00E94CD0880E395E00E94CD0809
:102D20008091C50190E00E94520E8EE195E00E94D4
:102D3000CD086091D7017091D8018091D90190910F
:102D4000DA0141E050E00E94660F88E195E00E94C0
:102D5000CD086091F2017091F3018091F40190919E
:102D6000F50141E050E00E94660F81E195E00E948C
:102D7000CD086091090270910A0280910B02909136
:102D80000C0242E050E00E94660F8AE095E00E944B
:102D9000CD080E94D4074AE00E940E0E87E491E01D
:102DA0000E94D10D21CF8430A9F088F0853009F040
:102DB00098CF83E595E002C08DE795E00E94CD08AD
:102DC00090CF86E795E0FACF80E795E0F7CF88E6E9
:102DD00095E0F4CF8EE595E0F1CF87E495E00E9491
:102DE000CD088DCF84E495E0FACF8FE395E0F7CF5F
:102DF00085E295E08FCF8DED94E00E94DE0D8EEAA6
:102E000094E00E94DE0D89E694E00E94DE0D88E2E7
:102E100094E00E94DE0D8BEF93E00E94DE0D86ECC5
:102E200093E00E94DE0D85E993E00E94DE0D84E5CB
:102E300093E00E94DE0D8AE193E00E94DE0D83EEB6
:102E400092E00E94DE0D88EA92E00E94DE0D8BE89F
:102E500092E064CE80910802811103C085E39AE07C
:102E60005DCE8090090290900A02A0900B02B09073
:102E70000C0220E030E040EA50E4C501B4010E94B9
:102E8000612A1816BCF42AE939E949ED50E4C50174
:102E9000B4010E94252787FF0DC088E19AE00E94B7
:102EA000CD0842E050E0C501B4010E94660F87E002
:102EB0009AE034CE8091F601811109C0F092F601BA
:102EC0001092EB010E9473078BED99E027CE8FEBF8
:102ED00099E024CE8090430390904403A090450352
:102EE000B090460340903F035090400360904103F0
:102EF00070904203C8010E948A2560933B0370933F
:102F00003C0380933D0390933E0340923F035092D5
:102F10004003609241037092420380924303909277
:102F20004403A0924503B09246035ECE80904303D3
:102F300090904403A0904503B0904603C8010E94BE
:102F40008A2560933F0370934003809341039093DD
:102F50004203E3CFC8010E948A2560934303709324
:102F6000440380934503909346033ECE222361F0B1
:102F7000C8010E948A256093110170931201809309
:102F800013019093140130CE87E999E0C7CD809169
:102F90000802811103C08AE799E0C0CD8090090240
:102FA00090900A02A0900B02B0900C0220E030E05A
:102FB00040EA50E4C501B4010E94612A18166CF47D
:102FC0002AE939E949ED50E4C501B4010E942527F9
:102FD00087FF03C08DE599E0A1CD8091F6018111B5
:102FE0000FC0E092F6010E94D4076093E70170934E
:102FF000E8018093E9019093EA0184E399E08ECDA2
:1030000086E199E08BCD80910802811103C087EFA2
:1030100098E084CD8090090290900A02A0900B0263
:10302000B0900C0220E030E040EA50E4C501B40169
:103030000E94612A18166CF42AE939E949ED50E436
:10304000C501B4010E94252787FF03C088ED98E0E1
:1030500065CD8091F601811111C0C092F6010E94E8
:10306000D4076093E7017093E8018093E90190939E
:10307000EA010E94730785EC98E050CD85EA98E05C
:103080004DCD8BE898E00E94DE0D82E992E00E942F
:10309000ED08F8940C94003FF7CCE8EEF3E0F093E1
:1030A000F101E093F0011092EC011092ED01109209
:1030B000EE011092EF0189E598E030CD8091F601A4
:1030C0008430E1F51092BF01C8010E948A2520E0FA
:1030D00030E048EC51EC0E942527812C912CF8EC33
:1030E000AF2EF1ECBF2E87FD16C0C8010E948A25C5
:1030F00020E030E048EC51E40E94612A812C912CC0
:10310000E8ECAE2EE1E4BE2E18162CF0C8010E94A9
:103110008A254B015C018092B7019092B801A09280
:10312000B901B092BA018DE498E00E94CD0841E067
:1031300050E0C501B4010E94580FA6CC82E398E08C
:10314000EDCC8091F6018430B9F5C8010E948A2542
:103150009B01AC016091D7017091D8018091D90198
:103160009091DA010E94B4286093BB017093BC0176
:103170008093BD019093BE01F092BF018091F20156
:103180009091F301A091F401B091F5018093CE01EB
:103190009093CF01A093D001B093D1018CE298E03D
:1031A0000E94CD08C8010E948A2550E040E00E949C
:1031B000660F88E298E0B2CC8DE098E0AFCC8091C9
:1031C000F601843031F5C8010E948A252091F20170
:1031D0003091F3014091F4015091F5010E94B4281F
:1031E0004B015C018092CE019092CF01A092D00160
:1031F000B092D101E092BF011092B6011092B701D6
:103200001092B8011092B9011092BA018EEF97E0B6
:103210008CCF81ED97E082CC222309F435CCC80114
:103220000E948A2560930D0170930E0180930F0117
:1032300090931001D9CC0E9450061092B2011092C6
:10324000B3011092B4011092B5018FEB97E066CCF8
:103250008091C5018F258093C501882319F084E3EF
:1032600097E05CCC87E297E059CCC8010E948E259C
:103270005C0160E270E0C8010E94282B0097C1F059
:1032800001960E948E2597FD15C0893C910514F08A
:1032900088EC90E0B7FC10C0F9ECAF16B1041CF05C
:1032A00078ECA72EB12CA0921601809317019CCC2C
:1032B000C501E9CF80E0EECFA12CF5CF80910802C7
:1032C000811103C083E097E029CC8091F6018450FE
:1032D000823018F482EE96E021CC82EC96E00E94D7
:1032E000DE0D0E94CC0C882339F082EB96E00E9420
:1032F000DE0D0E943610C8CB81E896E00FCC80919D
:10330000F601811115C0D092F6011092C9011092F8
:10331000C8011092C7011092C601F09208010E94E4
:10332000730780E596E00E94DE0D8DE096E0F6CB17
:103330008AEE95E0F3CB8091F601853009F05CC010
:10334000C8010E948E258F3F910519F014F08FEF70
:1033500090E081302FEF920714F481E09FEF3CE67C
:10336000B31245C09093C7018093C6010E94D40751
:103370006093CA017093CB018093CC019093CD01EF
:10338000109208010091C6011091C7016091C80117
:103390007091C901C8010E9441078CED95E00E941F
:1033A000CD08C8010E94520E88ED95E00E94CD081C
:1033B0008090C8019090C901092C000CAA08BB0894
:1033C0004AE0C501B401B7FE0BC08DE20E94E808D7
:1033D00066277727CB01681979098A099B094AE092
:1033E0000E940E0E87E491E00E94D10D4DCB909388
:1033F000C9018093C801BACF84EB95E08FCB8CEAEA
:1034000095E00E94CD086091090270910A028091B6
:103410000B0290910C0242E050E00E94660F81EA9C
:1034200095E00E94CD080E9465060E94520E8FE929
:1034300095E074CB8FE895E00E94CD088B2D0E941B
:10344000E808D0CFE73108F01FCB91E09E0F9093B2
:10345000B101F0E0E756FE4F808316CB0E947D0756
:1034600000910E0210910F02209110023091110272
:103470006B017C01C01AD10AE20AF30A2B96CCAE8A
:10348000DDAEEEAEFFAE2B9728E8C21623E1D206E2
:10349000E104F10408F40EC260930E0270930F026F
:1034A0008093100290931102C701B6010E942A274F
:1034B0002DEB37E346E855E30E948B276BA77CA7EB
:1034C0008DA79EA780910D028F5F843608F0B0C053
:1034D00080930D028091080281114CC10E94D40793
:1034E000009104021091050220910602309107021A
:1034F000601B710B820B930B613D77408105910539
:1035000008F01FC127961CAE1DAE1EAE1FAE27973A
:103510001FAA18AE19AE1AAE2F961CAE1DAE1EAE67
:103520001FAE2F97412C512C32014BAE5CAE6DAECD
:103530007EAE809108028823F1F1E090F001F090D6
:10354000F101E114F104B9F12091EC013091ED01A8
:103550004091EE015091EF01C301B2010E94B428E5
:103560006093EC017093ED018093EE019093EF0175
:1035700021E0E21AF108F092F101E092F001EF2867
:10358000D1F420E030E04AE754E40E9492296B0134
:103590007C01C0921101D0921201E0921301F092CD
:1035A00014018EE69BE00E94CD0842E050E0C70186
:1035B000B6010E94580F1091F601113009F098C31E
:1035C0002091110130911201409113015091140189
:1035D000C301B2010E94B3289F7720E030E040EAA7
:1035E00050E40E942527682F661F6627661F8DE01E
:1035F0000E94760620911101309112014091130131
:1036000050911401C301B2010E94B3289F7720E0BA
:1036100030E040EA50E40E94252787FDA6C370E011
:1036200060E090E080E00E9441071092EB016EC3E1
:1036300010920D020E946506BC01990F880B990B30
:103640000E942C2725E135E74AE75CE30E948B279F
:103650006B017C018090090290900A02A0900B02FD
:10366000B0900C0220E030E0A901C501B4010E9435
:103670002527882391F0A5019401C701B6010E9476
:10368000B3282DEC3CEC4CE45EE30E948B27A501B3
:1036900094010E94B4286B017C01C0920902D0926F
:1036A0000A02E0920B02F0920C0220E030E040EAC5
:1036B00050E4C701B6010E94612A1816ACF5A701B3
:1036C000960163E373E383E091E40E9492296B0126
:1036D0007C012DEC3CEC4CE45FE30E94252787FD48
:1036E0001AC023E333E343EB5FE3C701B6010E9453
:1036F000612A18163CF463E3C62EDC2C63EBE62E3D
:103700006FE3F62EC0921801D0921901E0921A01CF
:10371000F0921B01DFCE5DECC52E5CECD52E5CE497
:10372000E52E5FE3F52EEECF80E090E0A0E8BFE36A
:103730008093180190931901A0931A01B0931B0173
:10374000C9CE0E94D407609304027093050280934F
:103750000602909307020E94590C882309F4D2CEE6
:1037600081E08093080286EA9BE00E94DE0D0E94C1
:10377000E810C8CE4EE0BE016F5F7F4F8BE30E9422
:103780005C0B89819A81982789279827AB80BC8018
:10379000BA24AB24BA24ED80FE80FE24EF24FE245C
:1037A000C984DA84DC24CD24DC2420911D013091ED
:1037B0001E01C21AD30A6B857C8576276727762778
:1037C00020911F0130912001621B730B0D851E8516
:1037D0001027012710272091210130912201021B7F
:1037E000130B2091F8013091F9012817390709F0DE
:1037F0006EC02091FA013091FB012A153B0509F0BA
:1038000066C02091FC013091FD012E153F0509F0A5
:103810005EC02091FE013091FF012C153D0509F09D
:1038200056C020910002309101022617370709F097
:103830004EC020910202309103022017310709F097
:1038400046C02091F7012F3F19F02F5F2093F70119
:103850009093F9018093F801B092FB01A092FA01D4
:10386000F092FD01E092FC01D092FF01C092FE01B6
:10387000709301026093000210930302009302020E
:103880008091F701843658F11092F70110920802E6
:103890001092040210920502109206021092070282
:1038A0008091F601843011F08130A1F48BE99BE026
:1038B0000E94EC0D80E090E0892B09F4DDC80E94A5
:1038C0004A08882309F4D8C80E940000D5C810927D
:1038D000F701BECF80E89BE00E94DE0DEBCF072E04
:1038E000000C880B990B0E942C2721E73DE344E450
:1038F00052E40E9492292F966CAF7DAF8EAF9FAF9E
:103900002F97B601DD0C880B990B0E942C2721E71D
:103910003DE344E452E40E9492296FAB78AF89AF53
:103920009AAFB801110F880B990B0E942C2721E741
:103930003DE344E452E40E94922927966CAF7DAFA8
:103940008EAF9FAF2797B701FF0C880B990B0E9492
:103950002C2720E030E040E059E30E948B276B01E8
:103960007C01B501BB0C880B990B0E942C2720E031
:1039700030E040E059E30E948B27A70196010E94A6
:10398000332920E030E044E353E40E948B272BED01
:103990003FE049E450E40E9492296BAF7CAF8DAFC9
:1039A0009EAFC0907403D0907503E0907603F090C2
:1039B00077036396CCAEDDAEEEAEFFAE6397A701A4
:1039C00096016FA978AD89AD9AAD0E94B3289B018D
:1039D000AC01209378033093790340937A0350939A
:1039E0007B036BA57CA58DA59EA50E948B272091AE
:1039F00070033091710340917203509173030E94E0
:103A0000B42867966CAF7DAF8EAF9FAF6797C090BD
:103A10008803D0908903E0908A03F0908B03CFA6AF
:103A2000D8AAE9AAFAAAA70196016BA57CA58DA53B
:103A30009EA50E948B274B015C0140908003509013
:103A400081036090820370908303C0908403D090C0
:103A50008503E0908603F09087032396CCAEDDAE1D
:103A6000EEAEFFAE2397A30192010E94B328A701F7
:103A700096010E94B3282091640330916503409120
:103A80006603509167030E94B4282BA53CA54DA561
:103A90005EA50E948B2720917C0330917D0340918D
:103AA0007E0350917F030E94B4286B017C01A50125
:103AB0009401C301B2010E94B3286BAB7CAB8DAB08
:103AC0009EABA501940123966CAD7DAD8EAD9FADEF
:103AD00023970E94B32823966CAF7DAF8EAF9FAF24
:103AE0002397209168033091690340916A035091B4
:103AF0006B036BA57CA58DA59EA50E948B272FA58A
:103B000038A949A95AA90E94B4286F966CAF7DAF15
:103B10008EAF9FAF6F9720916C0330916D034091F2
:103B20006E0350916F03C701B6010E94B4282B01A8
:103B30003C01AC019B01C701B6010E9492294B01D7
:103B40005C01A301920123966CAD7DAD8EAD9FAD5E
:103B500023970E9492296FA778AB89AB9AAB67969F
:103B60002CAD3DAD4EAD5FAD67976BAD7CAD8DAD12
:103B70009EAD0E94B3286B966CAF7DAF8EAF9FAFAA
:103B80006B979B01AC01C501B4010E948B2767961E
:103B90002CAD3DAD4EAD5FAD67970E94B4282B01B3
:103BA0003C014092700350927103609272037092D4
:103BB00073036B962CAD3DAD4EAD5FAD6B976FA5AE
:103BC00078A989A99AA90E948B2763962CAD3DAD4F
:103BD0004EAD5FAD63970E94B428609374037093F9
:103BE00075038093760390937703A5019401C70131
:103BF000B6010E948B279B01AC01C701B6010E9450
:103C0000B32860937C0370937D0380937E0390932D
:103C10007F03A50194016BA97CA98DA99EA90E948F
:103C20008B279B01AC016BA97CA98DA99EA90E9441
:103C3000B3286093800370938103809382039093F1
:103C400083032FA538A949A95AA9C701B6010E9423
:103C50008B279B01AC0123966CAD7DAD8EAD9FADE6
:103C600023970E94B3286093840370938503809305
:103C70008603909387032FA538A949A95AA96BA950
:103C80007CA98DA99EA90E948B279B01AC016F96F0
:103C90006CAD7DAD8EAD9FAD6F970E94B3286093E4
:103CA00088037093890380938A0390938B032796EC
:103CB0002CAD3DAD4EAD5FAD27976BA57CA58DA519
:103CC0009EA50E948B279B01AC016091F20170912F
:103CD000F3018091F4019091F5010E94B428609362
:103CE000F2017093F3018093F4019093F50121CCDC
:103CF00061E0143009F060E08DE00E947606133038
:103D000009F4DCC030F4123009F47CC0312C212CD1
:103D100009C4143009F48BC11530C1F78091080132
:103D20008111F4CF0E94D4070091CA011091CB01F8
:103D30002091CC013091CD01601B710B820B930B54
:103D4000613D77408105910508F31092C9011092F9
:103D5000C8011092C7011092C6010E94610781E05C
:103D60008093080187EC9AE04AC06FE070E08FE032
:103D700090E00E9441078091EB0181110DC01093EA
:103D8000EB010E94D4076093E7017093E8018093F0
:103D9000E9019093EA01BACF0E94D4070091E701AC
:103DA0001091E8012091E9013091EA01601B710B4B
:103DB000820B930B603D77408105910508F4A6CFF7
:103DC0000E9450060E94070BCBACDCACEDACFEAC05
:103DD000C0927003D0927103E0927203F092730369
:103DE0000E94D4076093E3017093E4018093E5019E
:103DF0009093E60184E08093F60182E59BE00E94C7
:103E0000DE0D84CF0E94D4070091E7011091E801F4
:103E10002091E9013091EA01601B710B820B930B39
:103E2000613177428105910528F08DE39BE00E9486
:103E3000EC0D6CCF209111013091120140911301D2
:103E400050911401C301B2010E94B3289F7720E072
:103E500030E040EA50E40E94252787FF57CF20E05A
:103E600030E040E752E46FA978AD89AD9AAD9F7715
:103E70000E94252787FF4ACF0E9450060E94070B09
:103E8000CBACDCACEDACFEACC0927003D092710355
:103E9000E0927203F09273030E94D4076093E301EF
:103EA0007093E4018093E5019093E6010E9473070B
:103EB00084E08093F60186E29BE0A1CF0E94D407C4
:103EC0000091E7011091E8012091E9013091EA01A8
:103ED000601B710B820B930B61347F41810591054F
:103EE00018F086E19BE0A3CF2091110130911201DF
:103EF0004091130150911401C301B2010E94B328F3
:103F00006B017C014B015C01E894B7F820E030E0E4
:103F100040EA50E4C501B4010E94252787FF2DC067
:103F200020E030E040E752E46FA978AD89AD9AAD6A
:103F30009F770E94252787FF20C00E9450060E947D
:103F4000070BCBACDCACEDACFEACC0927003D092F6
:103F50007103E0927203F09273030E94D40760939E
:103F6000E3017093E4018093E5019093E60184E01E
:103F70008093F60185EF9AE042CF20E030E0A9017E
:103F8000C701B6010E94612ACFA8D8ACE9ACFAAC4F
:103F9000181624F0F7FAF094F7F8F09420E030E0E7
:103FA00040E951E4C501B4010E94252787FF07C0FD
:103FB00070E060E090E080E00E944107A7CE20E042
:103FC00030E040EA50ECC701B6010E94252787FF88
:103FD00005C065E570E085E590E0EECF20E030E0DB
:103FE00040EA50E4C701B6010E94612A181604F3A2
:103FF0000E94D4074B015C010E94D4076B017C0135
:10400000C501B40128E230E040E050E00E94D22A2D
:104010008B01025E1F4FC701B60128E230E040E08D
:1040200050E00E94D22ACB014E96B801C5CF209114
:104030001101309112014091130150911401C301FB
:10404000B2010E94B3286B017C0120E030E040E225
:1040500052EC0E94252787FD0AC020E030E040EDA9
:1040600051E4C701B6010E94612A18161CF489EEBA
:104070009AE0DDCEC090DF01D090E001E090E10158
:10408000F090E201C701B6019F7720E030E040E008
:1040900051E40E94252720E030E0A90187FD0EC0F1
:1040A00020910D0130910E0140910F0150911001AE
:1040B000C701B6010E948B279B01AC012093DB0155
:1040C0003093DC014093DD015093DE016BA57CA5AC
:1040D0008DA59EA50E948B272091D7013091D801F4
:1040E0004091D9015091DA010E94B4286B017C0102
:1040F000C092D701D092D801E092D901F092DA01B2
:104100008091D6018F5F8A3008F01FC28093D6015C
:104110002091D2013091D3014091D4015091D50129
:10412000609111017091120180911301909114011D
:104130000E94B328A30192010E94B3286B017C0165
:1041400020913B0330913C0340913D0350913E034D
:104150000E948B276BAB7CAB8DAB9EAB6093570300
:10416000709358038093590390935A0320913F030F
:10417000309140034091410350914203C701B60181
:104180000E948B272BA53CA54DA55EA50E948B27E1
:10419000209153033091540340915503509156039D
:1041A0000E94B4284B015C01809253039092540307
:1041B000A0925503B0925603C0904B03D0904C038D
:1041C000E0904D03F0904E039601A7010E94612AF2
:1041D00018160CF072C3C601D70180935303909355
:1041E0005403A0935503B0935603809153039091C9
:1041F0005403A0915503B09156038FA798ABA9AB78
:10420000BAAB80935B0390935C03A0935D03B09380
:104210005E0380916303882309F470C310925F03E7
:104220001092600310926103109262031092630374
:1042300040924F0350925003609251037092520388
:104240002FA538A949A95AA96BA97CA98DA99EA90E
:104250000E94B42820915F03309160034091610374
:10426000509162030E94B4285B018C019B01AC0158
:10427000B601C7010E94252787FD12C0C0904703E1
:10428000D0904803E0904903F0904A039601A701BB
:10429000B501C8010E94252787FD02C0650178018C
:1042A00020E030E04FE753ECB601C7010E9425271C
:1042B0002224239433243A9487FD10C020E030E078
:1042C0004FE753E4B601C7010E94612A18160CF4A7
:1042D00042C3B601C7010E94042A1B01C090DF013E
:1042E000D090E001E090E101F090E2012DEC3CEC97
:1042F0004CEC5EE36BA57CA58DA59EA50E94B42821
:104300009B01AC016BA57CA58DA59EA50E94922961
:104310004B015C01B101032C000C880B990B0E942E
:104320002C27A70196010E94B3289B01AC01C5016F
:10433000B4010E948B27A70196010E94B4286093C4
:10434000DF017093E0018093E1019093E2012091FD
:10435000F2013091F3014091F4015091F501609127
:10436000CE017091CF018091D0019091D1010E9436
:10437000B3282091090130910A0140910B0150911D
:104380000C010E948B276B017C0120E030E044E3AC
:1043900052EC0E94252703ED1FEF87FD11C020E09E
:1043A00030E044E352E4C701B6010E94612A0DE205
:1043B00010E018162CF0C701B6010E94042A8B01E8
:1043C00080911501882309F4ADC0D090160170E0EA
:1043D00060E02016310699F17101E01AF10AB70187
:1043E0009FEFE916F10419F014F06FEF70E06130FF
:1043F000AFEF7A0714F461E07FEFDD2001F19B015C
:1044000077FF03C0319521953109AFEFB0E0AD19C9
:10441000B1090E94192B2FEF30E040E050E00E94DC
:10442000F42ADA01C9018D0D911DA11DB11DBC0138
:104430001E141F0424F066277727681B790B41019F
:10444000800E911EC0901801D0901901E0901A01C1
:10445000F0901B01072E000C880B990B0E942C2753
:10446000A70196010E948B270E94042A6BA77CA7B4
:104470008DA79EA7B090170110E000E08114910471
:1044800081F18401BFEF8B16910419F014F00FEF46
:1044900010E00130EFEF1E0714F401E01FEFBB2026
:1044A00001F1980117FF03C0319521953109AFEF54
:1044B000B0E0AB19B1090E94192B2FEF30E040E0BA
:1044C00050E00E94F42ADA01C9018B0D911DA11D53
:1044D000B11D8C011814190424F000271127081BA2
:1044E000190B4BA55CA551954195510965E070E00C
:1044F00087E090E00E941E07B801110F880B990B0E
:104500000E942C27A70196010E948B270E94042A53
:1045100044275527461B570B66E070E088E090E083
:104520000E941E078091C501882309F4C3C98091A8
:104530000802882309F4BEC98091C4018F5F8830C6
:1045400008F00DC28093C401B5C91092D6018091C4
:10455000BF01813009F0DCC0A70196016091BB0169
:104560007091BC018091BD019091BE010E94B32861
:104570004B015C01AC019B015F772BAB3CAB4DABBE
:104580005EAB20E030E040E050E46BA97CA98DA94F
:104590009EA90E94252787FF15C01092BF01109287
:1045A000B7011092B8011092B9011092BA0186EBCE
:1045B0009AE00E94CD0841E050E0C701B6010E9498
:1045C000580F31C020E030E040EF51E46BA97CA9E6
:1045D0008DA99EA90E948B270E94742A6B017C01E1
:1045E00020E030E040E451E40E94612A181634F4DF
:1045F000C12CD12C40E4E42E41E4F42E20E030E044
:10460000A901C501B4010E94612A181624F0F7FA25
:10461000F094F7F8F094C092B701D092B801E0920C
:10462000B901F092BA018090C0019090C101A090B0
:10463000C201B090C301A50194016091B7017091CE
:10464000B8018091B9019091BA010E94B3286B0121
:104650007C012FEF3FEF4FE75FE30E94612A1816BE
:104660000CF48EC02FEF3FEF4FE75FEBC701B601B1
:104670000E94252787FD8CC0A7019601C501B401C2
:104680000E94B4286093C0017093C1018093C2015D
:104690009093C3012091DB013091DC014091DD0159
:1046A0005091DE010E94B3284B015C01209104016E
:1046B0003091050140910601509107010E948B271E
:1046C0002CEC3CEC4CE45DE30E948B272091B20182
:1046D0003091B3014091B4015091B5010E94B428CA
:1046E0006B017C0120E030E040E450E40E94612A4C
:1046F00018160CF055C080E090E0A0E4B0E4809380
:10470000B2019093B301A093B401B093B5015AC024
:10471000823009F088CF1092B7011092B801109240
:10472000B9011092BA01C090F201D090F301E0906B
:10473000F401F090F501A70196016091CE0170910E
:10474000CF018091D0019091D1010E94B3289F7731
:1047500020E030E040E450E40E94252787FF0DC0B0
:104760008091B6018F5F8093B6018A3008F45BCFE9
:104770001092BF0184EA9AE01CCF1092B60153CF89
:10478000CC24CA94DC2C3FE7E32E3FE3F32E74CF16
:10479000CC24CA94DC2C2FE7E22E2FEBF22E6CCF28
:1047A00020E030E040E450ECC701B6010E9425272C
:1047B00087FD35C0C092B201D092B301E092B4013E
:1047C000F092B50120910001309101014091020168
:1047D00050910301C501B4010E948B272091B201C1
:1047E0003091B3014091B4015091B5010E94B428B9
:1047F0006B017C0120E030E040E450E40E94612A3B
:10480000181694F480E090E0A0E4B0E48093D20124
:104810009093D301A093D401B093D50117C080E049
:1048200090E0A0E4B0EC6BCF20E030E040E450EC4E
:10483000C701B6010E94252787FD3AC0C092D20168
:10484000D092D301E092D401F092D5010E94D40716
:104850000091E3011091E4012091E5013091E6011E
:10486000601B710B820B930B683B3BE07307810568
:10487000910508F04DCC0E942A2720E030E84BE358
:1048800055E40E9492299B01AC016091D201709184
:10489000D3018091D4019091D5010E948B27609320
:1048A000D2017093D3018093D4019093D50130CC81
:1048B00080E090E0A0E4B0ECA9CF80914703909114
:1048C0004803A0914903B0914A038FA798ABA9ABC5
:1048D000BAAB9C01AD01C501B4010E94252787FF39
:1048E00084CC2FA538A949A95AA920935303309302
:1048F0005403409355035093560377CC8090430361
:1049000090904403A0904503B0904603B7FAB0944A
:10491000B7F8B09420914F03309150034091510368
:1049200050915203C301B2010E94B3289B01AC0114
:10493000C501B4010E948B272BA53CA54DA55EA502
:104940000E94922960935F037093600380936103D8
:10495000909362036DCC22242A94312CBFCC109208
:10496000C4010E94D4074AE00E940E0E8CE20E940D
:10497000E80842E050E06BAD7CAD8DAD9EAD0E948D
:10498000660F8CE20E94E80842E050E0C301B201E9
:104990000E94660F8CE20E94E80842E050E06FA996
:1049A00078AD89AD9AAD0E94660F8CE20E94E8084E
:1049B00060915703709158038091590390915A0365
:1049C00041E050E00E94660F8CE20E94E80860918E
:1049D0005B0370915C0380915D0390915E0341E005
:1049E00050E00E94660F8CE20E94E80860915F032D
:1049F00070916003809161039091620341E050E007
:104A00000E94660F8CE20E94E808C1010E94520ECB
:104A10008CE20E94E8084AE02B966CAD7DAD8EAD2D
:104A20009FAD2B970E940E0E8CE20E94E80842E098
:104A300050E02F966CAD7DAD8EAD9FAD2F970E944F
:104A4000660F8CE20E94E80842E050E027966CADC9
:104A50007DAD8EAD9FAD27970E94660F8CE20E94C0
:104A6000E8086091D2017091D3018091D4019091B6
:104A7000D50142E050E00E94660F8CE20E94E808F7
:104A80006091DB017091DC018091DD019091DE018C
:104A900041E050E00E94660F8CE20E94E8086091BD
:104AA000C0017091C1018091C2019091C30141E0A8
:104AB00050E00E94660F8CE20E94E8086091D701E6
:104AC0007091D8018091D9019091DA0141E050E0D4
:104AD0000E94660F8CE20E94E8086091F2017091DA
:104AE000F3018091F4019091F50141E050E00E94C2
:104AF000660F8CE20E94E8086091090270910A0238
:104B000080910B0290910C0242E050E00E94580FFD
:104B10000C945A1C662777270C94B425FC0188272F
:104B20009927E89421912032E9F3293010F02E30B2
:104B3000C8F32B3241F02D3239F4689404C00E943E
:104B4000AC25820F911D219120532A30C0F31EF411
:104B5000909581959F4F08957AE0979F902D879F1C
:104B6000802D910D11240895B0E0A0E0EAEBF5E26C
:104B70000C9473285C017B016115710519F0DB0150
:104B80008D939C9385010F5F1F4FF501D0818D2F71
:104B900090E00E9404276C01892BB9F5DD32B9F54C
:104BA0000F5F1F4FD5011196DC91C1E05801F1E074
:104BB000AF1AB10843E050E06EE970E0C5010E9411
:104BC0000D27892B69F5680182E0C80ED11C45E0EC
:104BD00050E069E970E0C6010E940D27892B21F49D
:104BE000680197E0C90ED11CE114F10419F0D70156
:104BF000CD92DC9260E070E080E89FEFC111FFC0D1
:104C000060E070E080E89FE7FAC05801BBCFDB327C
:104C100029F485010E5F1F4FF501D181C0E0C6CF99
:104C200043E050E066E970E0C5010E940D27892B42
:104C3000E9F0F80110E000E020E030E0A9015F01B8
:104C4000B0ED8B2E8D0E89E08815C8F19C2E6894EE
:104C500091F88C2F8870C2FF16C0811102C00F5FBF
:104C60001F4F3196D501DC91C92DE9CFE114F10434
:104C700029F00E5F1F4FF7011183008360E070E0A1
:104C800080EC9FE7BCC0882311F001501109A5E01A
:104C9000B0E00E9462289B01AC01220F331F441F29
:104CA000551F280D311D411D511D283999E939071E
:104CB000490799E15907A8F2C6609C2ED2CFAEEF02
:104CC0008A1206C0C3FD3CC09C2E689493F8C9CFDD
:104CD000DF7DD534A9F580818D3239F4C061DF01E3
:104CE0001296818162E070E006C0DF018B32C1F371
:104CF000119661E070E080535D01A61AB70A8A3010
:104D0000F8F4E0E8CE16ECE0DE065CF4B601660FDF
:104D1000771F660F771FC60ED71ECC0CDD1CC80E82
:104D2000D11C5D01FFEFAF1ABF0A8C9180538A300E
:104D3000A8F1C4FF03C0D194C194D1080C0D1D1D6E
:104D4000C1FF09C0E114F10431F081E0A81AB108F3
:104D5000D701AD92BC92CA01B9010E942A27C37043
:104D6000C33009F490584B015C0120E030E0A90108
:104D70000E942527882309F440C0CDECD0E017FF1E
:104D800005C0119501951109C5EBD0E06E01B8E1A0
:104D9000CB1AD10880E2E82EF12C0FC0D501B1CF9B
:104DA000FE0125913591459154910E191F09C501B8
:104DB000B4010E948B274B015C01D501C4010E1583
:104DC0001F0574F72497F594E794CC16DD06A9F730
:104DD0008A2F880F8B2F881F8F3F49F020E030E00B
:104DE000A901C501B4010E942527811106C082E2F4
:104DF00090E090938D0380938C03C501B401CDB7EF
:104E0000DEB7ECE00C948F2891110C94F8278032D7
:104E100019F089508550C8F70895FB01DC01415015
:104E2000504088F08D9181341CF08B350CF4805EFD
:104E3000659161341CF06B350CF4605E861B61116A
:104E400071F3990B0895881BFCCF0E94672708F423
:104E500081E00895E89409C097FB3EF49095809511
:104E6000709561957F4F8F4F9F4F9923A9F0F92F30
:104E700096E9BB279395F695879577956795B795AE
:104E8000F111F8CFFAF4BB0F11F460FF1BC06F5F94
:104E90007F4F8F4F9F4F16C0882311F096E911C0A6
:104EA000772321F09EE8872F762F05C0662371F0C7
:104EB00096E8862F70E060E02AF09A95660F771FDB
:104EC000881FDAF7880F9695879597F90895990FB7
:104ED0000008550FAA0BE0E8FEEF16161706E807C4
:104EE000F907C0F012161306E407F50798F0621BE5
:104EF000730B840B950B39F40A2661F0232B242BBA
:104F0000252B21F408950A2609F4A140A6958FEFD8
:104F1000811D811D08950E949E270C9412280E94D5
:104F2000042838F00E940B2820F0952311F00C94EF
:104F3000FB270C94012811240C9446280E94232856
:104F400070F3959FC1F3950F50E0551F629FF001DC
:104F5000729FBB27F00DB11D639FAA27F00DB11DF5
:104F6000AA1F649F6627B00DA11D661F829F22277E
:104F7000B00DA11D621F739FB00DA11D621F839F05
:104F8000A00D611D221F749F3327A00D611D231FDB
:104F9000849F600D211D822F762F6A2F11249F5729
:104FA00050409AF0F1F088234AF0EE0FFF1FBB1F2C
:104FB000661F771F881F91505040A9F79E3F5105EB
:104FC00080F00C94FB270C9446285F3FE4F3983E56
:104FD000D4F3869577956795B795F795E7959F5F95
:104FE000C1F7FE2B880F911D9695879597F9089527
:104FF00099278827089597F99F6780E870E060E017
:1050000008959FEF80EC089500240A941616170661
:1050100018060906089500240A94121613061406A9
:1050200005060895092E0394000C11F4882352F00C
:10503000BB0F40F4BF2B11F460FF04C06F5F7F4FC4
:105040008F4F9F4F089557FD9058440F551F59F0AB
:105050005F3F71F04795880F97FB991F61F09F3F65
:1050600079F087950895121613061406551FF2CF8E
:105070004695F1DF08C0161617061806991FF1CFDE
:1050800086957105610508940895E894BB27662705
:105090007727CB0197F90895F999FECF92BD81BD8D
:1050A000F89A992780B50895262FF999FECF1FBA4F
:1050B00092BD81BD20BD0FB6F894FA9AF99A0FBE41
:1050C000019608950E94A428A59F900DB49F900D6D
:1050D000A49F800D911D112408952F923F924F920D
:1050E0005F926F927F928F929F92AF92BF92CF9278
:1050F000DF92EF92FF920F931F93CF93DF93CDB781
:10510000DEB7CA1BDB0B0FB6F894DEBF0FBECDBFF8
:1051100009942A88398848885F846E847D848C84C9
:105120009B84AA84B984C884DF80EE80FD800C81D2
:105130001B81AA81B981CE0FD11D0FB6F894DEBFB5
:105140000FBECDBFED010895A29FB001B39FC00176
:10515000A39F700D811D1124911DB29F700D811DA3
:105160001124911D08955058BB27AA270E94CB28CF
:105170000C9412280E94042838F00E940B2820F07A
:1051800039F49F3F19F426F40C9401280EF4E095AD
:10519000E7FB0C94FB27E92F0E94232858F3BA174A
:1051A000620773078407950720F079F4A6F50C943D
:1051B00045280EF4E0950B2EBA2FA02D0B01B90156
:1051C00090010C01CA01A0011124FF27591B99F07D
:1051D000593F50F4503E68F11A16F040A22F232F89
:1051E000342F4427585FF3CF469537952795A795D9
:1051F000F0405395C9F77EF41F16BA0B620B730B80
:10520000840BBAF09150A1F0FF0FBB1F661F771FF0
:10521000881FC2F70EC0BA0F621F731F841F48F4A5
:10522000879577956795B795F7959E3F08F0B0CF2E
:105230009395880F08F09927EE0F97958795089515
:105240000E94042860F080E891E009F49EEF0E943B
:105250000B2828F040E851E071F45EEF0CC00C948C
:1052600001280C944528E92FE0780E94232840F378
:10527000092E052AB1F3261737074807590738F0D2
:105280000E2E07F8E02569F0E025E0640AC0EF6320
:1052900007F8009407FADB01B9019D01DC01CA019E
:1052A000AD01EF930E94A9290E9412280E94632950
:1052B0005F91552339F02BED3FE049E450FD49EC77
:1052C0000C94B4280895DF93DD27B92FBF7740E809
:1052D0005FE31616170648075B0718F4D92F0E94DC
:1052E000662A9F938F937F936F930E94B42AE8E678
:1052F000F0E00E943A2A0E9412282F913F914F918C
:105300005F910E949E27DD2351F09058A2EA2AED7A
:105310003FE049EC5FE3D0785D270E94CB28DF9126
:105320000C9412280E94A6290C9412280E940B2883
:1053300058F00E94042840F029F45F3F29F00C94B3
:10534000FB2751110C9446280C9401280E94232815
:1053500068F39923B1F3552391F3951B550BBB27A4
:10536000AA2762177307840738F09F5F5F4F220FE9
:10537000331F441FAA1FA9F335D00E2E3AF0E0E8E0
:1053800032D091505040E695001CCAF72BD0FE2F2A
:1053900029D0660F771F881FBB1F261737074807BE
:1053A000AB07B0E809F0BB0B802DBF01FF27935876
:1053B0005F4F3AF09E3F510578F00C94FB270C9418
:1053C00046285F3FE4F3983ED4F38695779567953A
:1053D000B795F7959F5FC9F7880F911D96958795AB
:1053E00097F90895E1E0660F771F881FBB1F6217CA
:1053F00073078407BA0720F0621B730B840BBA0B88
:10540000EE1F88F7E09508950E940B2A6894B11169
:105410000C94462808950E942B2888F09F5798F0F6
:10542000B92F9927B751B0F0E1F0660F771F881FA9
:10543000991F1AF0BA95C9F714C0B13091F00E94C3
:105440004528B1E008950C944528672F782F8827C8
:10545000B85F39F0B93FCCF3869577956795B395EA
:10546000D9F73EF490958095709561957F4F8F4F59
:105470009F4F0895DF93CF931F930F93FF92EF9267
:10548000DF927B018C01689406C0DA2EEF010E9446
:105490009E27FE01E894A59125913591459155915E
:1054A000A6F3EF010E94CB28FE019701A801DA9430
:1054B00069F7DF90EF90FF900F911F91CF91DF91EF
:1054C00008950E94672708F48FEF08959B01AC01AF
:1054D00060E070E080E89FE30C94922919F416F4E0
:1054E0000C9401280C94BD2A0E942B28B8F3992310
:1054F000C9F3B6F39F57550B87FF0E94CB2A0024B0
:10550000A0E640EA900180585695979528F4805C73
:10551000660F771F881F20F026173707480730F4DB
:10552000621B730B840B202931294A2BA6951794F3
:105530000794202531254A2758F7660F771F881FC3
:1055400020F026173707480730F4620B730B840BE3
:10555000200D311D411DA09581F7B901842F91586F
:10556000880F9695879508959B01AC010C948B2725
:105570000E946727880B990B08959F3F31F0915047
:1055800020F4879577956795B795880F911D969527
:10559000879597F9089591505040660F771F881F9F
:1055A000D2F70895A1E21A2EAA1BBB1BFD010DC064
:1055B000AA1FBB1FEE1FFF1FA217B307E407F507C3
:1055C00020F0A21BB30BE40BF50B661F771F881F9F
:1055D000991F1A9469F760957095809590959B0135
:1055E000AC01BD01CF010895052E97FB1EF4009478
:1055F0000E940B2B57FD07D00E94D22A07FC03D034
:105600004EF40C940B2B50954095309521953F4FBF
:105610004F4F5F4F089590958095709561957F4F9E
:105620008F4F9F4F0895EE0FFF1F0590F491E02DCF
:1056300009940E94A428332312F48A1B9B0B0C9418
:10564000232B0E94A428B7FF0895821B930B089573
:10565000FC018191861721F08823D9F799270895B5
:105660003197CF010895FC0181E090E0019006168A
:1056700009F4CF010020D1F701970895F894FFCFE6
:105680000AD7233D0AD7A33C0100000040D7A370EE
:105690003E0000C0400000000000803F68000000A5
:1056A000000000000000008008E0070D08ED083E43
:1056B000081C08300800000000BA0A8D0A040B63B9
:1056C0000A860A730A640A0D0A006E616E00696E2A
:0656D00066006F76660023
:00000001FF
